:020000040800F2
:10000000980E0020D5000008DD000008DF00000881
:1000100000000000000000000000000000000000E0
:10002000000000000000000000000000E1000008E7
:100030000000000000000000E3000008E5000008E8
:10004000E7000008E7000008E7000008E7000008F4
:10005000E7000008E7000008E7000008E7000008E4
:10006000E7000008E7000008E700000809070008AB
:10007000E7000008E7000008E7000008E7000008C4
:10008000E7000008E7000008E700000800000000A3
:10009000E7000008E7000008E7000008E7000008A4
:1000A000E7000008E7000008E7000008E700000894
:1000B000AD250008E700000800000000E700000888
:1000C0000348854600F09CFA004800476D37000859
:1000D000980E00200448804704480047FEE7FEE7EA
:1000E000FEE7FEE7FEE7FEE749210008C100000841
:1000F00030B50B46014600202022012409E00D46C0
:10010000D5409D4205D31D469540491B2546954047
:1001100040191546521E002DF1DC30BDF0B51FB45C
:100120000646002082B005464024019100901BE065
:10013000019922460F46304600F085F8049A059B47
:10014000801A994110D310461946224600F06BF8E8
:10015000361A8F410197224601200021009F00F0AE
:1001600062F838184D4100902046641E0028DFDCFC
:10017000019B00982946324607B0F0BD03460B4369
:100180009B0703D009E008C9121F08C0042AFAD24D
:1001900003E00B780370401C491C521EF9D27047D3
:1001A000D2B201E00270401C491EFBD2704700220F
:1001B000F6E710B513460A4604461946FFF7F0FF66
:1001C000204610BD421C0178401C0029FBD1801A3A
:1001D0007047F8B50E460546002400E0641C285D13
:1001E00000F042F80746305D00F03EF8381A02D1C0
:1001F000295D0029F2D1F8BDF7B5054600200E466D
:10020000044600E0641C02998C420BD2285D00F089
:100210002BF80746305D00F027F8381A02D1295D27
:100220000029EFD1FEBD10B5202A04DB0146203A9B
:100230009140002010BD914020239C1A0346E340CA
:100240001943904010BD10B5202A04DB0846203A1F
:10025000D040002110BD0B46D340D0402024A21A2C
:1002600091400843194610BD01464139192900D86B
:1002700020307047F0B507460846584087B0C00F99
:10028000049048000E46590040084908BC1A8841AD
:1002900005D2384631461E4617460B4602465800E0
:1002A000400810434CD0300D039040055900400DDC
:1002B000490D0590401A0290402872DA1803012176
:1002C000000B09050843019004980092002805D00E
:1002D00001995242002088410092019002984021E9
:1002E0000A1A01990098FFF79EFF05460C466B46D7
:1002F00007CB00F097F9C0197141039A0E0D002346
:10030000D71756401A467A40164344D0049A002A1A
:100310002DD0029A012A039A15DC1205C01A9141C8
:1003200001263605001C7141D20F059ED2070093AD
:10033000019202962A46234600F094F907B0F0BDD8
:1003400038463146FAE71605224A0F46B218C01A57
:10035000B74101210905001C4F4100187F4111469A
:1003600018187941E20F10436D19644113E0E20758
:100370006D0815436408C2071443039A0126120549
:10038000C01A91413605001C7141CE074008304328
:100390004908C01851412A46234600F056F9CDE7D6
:1003A000FFE7049801224000C117121A00238B4175
:1003B00004983146C417381AA141EEE730B401243D
:1003C000E407634030BC55E730B40124E4076140E2
:1003D00030BC4FE70000E0FFF0B51FB488B00B99C8
:1003E0000998002448400999C00F4900490809911B
:1003F000C0070B990090490049080B91099908988A
:10040000A64608431CD00B990A98084318D00998AF
:1004100001244000420D4800410D099824050003C5
:10042000000B204309900B980003000B20430B9016
:1004300050181C494018002201901446104605E04F
:10044000002001460DB0F0BD032801DA034600E0AC
:1004500003239C46C11A0AAE0AE05F0008ADED5BBB
:100460004F00F75B7D430027AA187C41491C5B1EA7
:100470006145F2DD410004AB5A522104120C0A43DB
:10048000240C401C0828DFDB01980290009970467C
:1004900001910090059B049A0799069800F0E2F8F4
:1004A000D0E700000DFCFFFFF0B50C465C4085B0C6
:1004B000E40FE40703944C000026640859009446B6
:1004C000490802460296224321D062460A431ED0C2
:1004D0006200570D4A000E032303550D0124024606
:1004E0002C492405781B1B0B360B4018234326434D
:1004F000614600901C46501AB44103D30098401C3A
:10050000009002E0921800985B41002803DA002076
:10051000014605B0F0BD00200121090507468646C9
:1005200011E064461D46141BB54106D36546521BB7
:10053000B341744607430C43A646CD07400849081B
:10054000284392185B4105460D43EAD110461843F3
:1005500013D06046194650407140084306D06046AB
:10056000101AB34106D20122002306E00022012323
:10057000DB0702E00122D2435310009874460105C4
:10058000381C6141029C039D0019694100F05DF82F
:10059000BFE70000FD0300004A0009030123090B27
:1005A0001B0519430A4B10B5520D9A4202DA00207E
:1005B000014610BD064B34339A4203DC9A1AFFF70A
:1005C00042FE10BD034BD218FFF72DFE10BD0000F8
:1005D000FF030000CDFBFFFF10B5002904DB012461
:1005E000E40740428C412146002B04DB1C460123DA
:1005F000DB075242A341994200D1904210BD000056
:10060000064C0125064E05E0E36807CC2B430C3C65
:1006100098471034B442F7D3FFF756FD343E000834
:10062000543E000810B5202A06DBCB170846203AB6
:100630001041C1170B4306E00B461341D040202464
:10064000A21A91400843194610BD10B5002B08DAD4
:100650000024401C614192185B411A4301D14008BB
:10066000400010BDF0B51FB482B005460C0003D0A9
:10067000084601F0B5FF02E001F0B2FF203002466B
:10068000009021462846FFF7CEFD049B059A0446BC
:100690000F4618431143084314D0184610431BD08B
:1006A000009840210A1A18460599FFF7CCFD054627
:1006B0000E46009A05990498FFF7B5FD084305D04A
:1006C000012004E02046394607B0F0BD0020C117E4
:1006D00005430E432C43374300990E986305401A97
:1006E0007905E40A00220C43FD0A0A3002D50020F5
:1006F0000146E9E70105101969410C9C0D9D00199F
:100700006941FFF7A2FFDFE710B50248406E00F035
:10071000DFF910BD1808002010B504686360836815
:10072000102B036803D099600068C26010BD9A6006
:100730000068C16010BD0000F8B5224F044616469F
:100740000D46384600F0A2F8002836D11E4948610F
:100750001E4B002C1FD0A0B2E14300280BD098689C
:10076000002E02D0204380B201E08AB21040C24382
:10077000120402439A60200C0DD0002E04D0D968D8
:10078000200C084380B202E0080CD9680840C1433D
:1007900009040143D960002D0FD02804000C0CD0AF
:1007A0001869002E02D0284380B202E0E94389B2E2
:1007B0000840C143090401431961384600F066F856
:1007C000F8BD000050C30000280000200000F81F02
:1007D00010B5084900224A6107494B684C1523436C
:1007E0004B604B68082423434B60C009C001026082
:1007F00010BD0000280000200020024010B5214A52
:1008000000219069C305204804D54169022319439A
:100810004161911593699B0505D5436901242343E3
:1008200043616302194393695B0505D54369082455
:1008300023434361E301194393691B0505D54369CC
:100840000424234343616302194393699B0405D540
:1008500043691024234343616302194393699B0353
:1008600004D5446920231C43446119439369DB0385
:1008700005D54369402423434361A00201439161AC
:1008800010BD0000002002402800002070B5054681
:1008900000F0B0FD0646184C0AE0681C08D0002D98
:1008A00004D000F0A7FD801BA84201D9032070BD31
:1008B000A069C007F1D1A069800701D50220A0611D
:1008C000A069C00511D4A06980050ED4A0694005B7
:1008D0000BD4A069000508D4A069800405D4A069E0
:1008E000800302D4A069C00303D5FFF787FF01206E
:1008F00070BD002070BD000000200240F0B500284F
:1009000021D0014620318C46497902291BD001684B
:100910000A68520852000A600268002111600268E9
:100920005160026891600268D160684C674D674E03
:10093000664F664A0168143428353C365037914278
:1009400003D101231DE00120F0BDA14201D11023FC
:1009500017E0A94202D1FF23013312E0B14202D1D4
:1009600001231B030DE0B94202D101231B0408E05F
:10097000564B6433994202D101231B0501E0012348
:100980001B06524908394B600168914201D102238C
:100990001BE0A14201D1202317E0A94202D101238B
:1009A0005B0212E0B14202D101235B030DE0B942C8
:1009B00002D101235B0408E0444B6433994202D125
:1009C00001235B0501E001235B06404908394B60C8
:1009D0000168914201D108231BE0A14201D180238B
:1009E00017E0A94202D10123DB0212E0B14202D199
:1009F0000123DB030DE0B94202D10123DB0408E04F
:100A0000324B6433994202D10123DB0501E001231B
:100A1000DB062E4908394B600168914201D104235D
:100A20001BE0A14201D1402317E0A94202D10123DA
:100A30009B0212E0B14202D101239B030DE0B942B7
:100A400002D101239B0408E0204B6433994202D178
:100A500001239B0501E001239B061C4908394B60DB
:100A60001A4903687831934203D18A6A1209120144
:100A700024E0A34202D18A6AF0231EE0AB4203D1F4
:100A80008A6A0F231B0218E0B34203D18A6A0F233C
:100A90001B0312E0BB4203D18A6A0F231B040CE044
:100AA0000A4A6432934203D18A6A0F231B0504E089
:100AB0008B4204D18A6A0F231B069A438A62002163
:100AC000C1636046417101710846F0BD08000240F3
:100AD000F8B504469D4801689C4A9C4E9B4F0832DD
:100AE000206813041C363037904201D108221EE0E2
:100AF000B04201D180221AE0B84202D10122D202D2
:100B000015E0924A4432904202D10122D2030EE013
:100B10008E4A5832904201D11A4608E08B4A6C3214
:100B2000904202D10122D20501E00122D2062546DF
:100B30001140203500293BD00168090738D50168EC
:100B4000082291430160814920680831884201D11F
:100B500008201EE0B04201D180201AE0B84202D144
:100B60000120C00215E079494431884202D10120B8
:100B7000C0030EE075495831884201D1184608E09B
:100B800072496C31884202D10120C00501E0012088
:100B9000C0066E494860E06B01210843E063042011
:100BA000687100202871616B002901D020468847B8
:100BB00066480168654A206808321315904201D1E1
:100BC00004221EE0B04201D140221AE0B84201D115
:100BD0001A4616E05D4A4432904202D10122920345
:100BE0000FE05A4A5832904202D10122920408E0A2
:100BF000564A6C32904202D10122920501E0012254
:100C00009206114238D00168490735D50168890636
:100C100003D4026804218A4302604C4920680831E9
:100C2000884201D104201EE0B04201D140201AE0E8
:100C3000B84201D1184616E044494431884202D1F5
:100C4000012080030FE041495831884202D1012040
:100C5000800408E03D496C31884202D101208005C2
:100C600001E0012080063949486005206871216B48
:100C7000002901D02046884734480168334A20685B
:100C800008325315904201D102221EE0B04201D138
:100C900020221AE0B84201D11A4616E02B4A44320B
:100CA000904202D1012252030FE0284A583290426A
:100CB00002D10122520408E0244A6C32904202D14F
:100CC0000122520501E00122520611423CD0016886
:100CD000890739D50168890603D401680222914346
:100CE00001601A4920680831884201D102201EE0C3
:100CF000B04201D120201AE0B84201D1184616E0D6
:100D000012494431884202D1012040030FE00F49CB
:100D10005831884202D10120400408E00B496C316F
:100D2000884202D10120400501E001204006074928
:100D30004860E06BE0630120687100202871E16A7F
:100D4000002901D020468847F8BD0000000002407D
:100D500070B5002805D0034620335979002902D008
:100D600003E0012070BD002119710221597104684E
:100D700022683749C5680A40816846692943056980
:100D80003543294385692943C5692943056A2943B0
:100D9000114321602F492F4C02687831A24206D1BD
:100DA0008A6A120912018A628A6A406849E0294CFB
:100DB0001434A24207D18A6AF024A2438A628A6A62
:100DC000406800013DE0234C2834A24208D18A6AE1
:100DD0000F242402A2438A628A6A4068000230E03B
:100DE0001C4C3C34A24208D18A6A0F242403A2433B
:100DF0008A628A6A4068000323E0164C5034A2429B
:100E000008D18A6A0F242404A2438A628A6A8088ED
:100E1000000416E00F4C6434A24208D18A6A0F2401
:100E20002405A2438A628A6A8088000509E08A4212
:100E300009D18A6A0F242406A2438A628A6A007949
:100E4000000602438A6201205871002070BD000034
:100E50000FC0FFFF08000240F8B5044620300579B6
:100E6000012D1ED0012505710226467120680768F4
:100E7000AF4307602046FFF74FFC2068016831430D
:100E80000160206801680422114301602068016844
:100E90000822114301602068016829430160002095
:100EA000F8BD0220F8BD0000F8B51A4E0546307CAA
:100EB0000F46012807D0012030741748FFF7E6FCE1
:100EC000010002D021E00220F8BD0020C0433860BC
:100ED0006C6814E02046FFF77BFC0F48FFF7D6FC58
:100EE00001460E48426808239A434260426843150F
:100EF0009A434260002901D03C6006E08034A86833
:100F00006A68C0018018A042E4D800203074084606
:100F1000F8BD00002800002050C30000002002405F
:100F20000F2101600A490A6A8260094A8032126808
:100F3000C260CA690274CA697023120C1A408274B2
:100F4000CA691203120F4274C969C90FC17470478C
:100F500000200240F8B5444E0446317C01200129AE
:100F60000ED00121317421780027C907002909D04A
:100F70006268E168A068FFF7DFFB002872D101E03A
:100F80000220F8BD2178394D890717D5207C2968C2
:100F90002968FF22013211400843C143090401437B
:100FA00033480091FFF772FC002805D17761009863
:100FB00028602F48FFF76AFC002853D121784907A1
:100FC00020D5A37C10201946014020201840402243
:100FD00013406A689C46274B01431A4063461943F5
:100FE0001143C8430004014321480091FFF74EFC20
:100FF000002805D17761009868601D48FFF746FC1E
:1010000000282FD12178090716D5617C6868194A14
:10101000613210400143C843000401431448009169
:10102000FFF734FC002805D177610098686010480C
:10103000FFF72CFC002815D12178C90612D5E07CD9
:10104000C40368684004400C0443E04300040443C4
:101050000748FFF71BFC002804D177616C60044847
:10106000FFF714FC3774F8BD280000200000F81FBB
:1010700050C300008FFF0000034841680222114363
:1010800041600020704700000020024010B5054874
:10109000416801229204114341600348FFF7F6FBC7
:1010A00010BD00000020024050C30000034841680A
:1010B00004221143416000207047000000200240DC
:1010C0000948416849070CD54168C90703D0074959
:1010D000C1600749C160074941610749416100207A
:1010E000704701207047000000200240EFCDAB891F
:1010F00005040302C8D9EAFB27262524F8B50C4CC1
:101100001646207C0F46012808D00120207409488B
:10111000FFF7BCFB0025002802D006E00220F8BD46
:1011200065613E600348FFF7B1FB2574F8BD000020
:101130002800002050C300000948416889070CD5E9
:101140004168C90703D00749C1600749C160074921
:1011500001610749016100207047012070470000CC
:1011600000200240EFCDAB8905040302BFAE9D8C89
:1011700016151413F0B5002362E001249C402246AA
:101180000A405CD006685F000325BD402E43AC4694
:101190000660DD08AD002D182E6AAE465D07EF0E25
:1011A0000F25BD40AE4375462E6286686546AE4348
:1011B00086604568A5434560C4686546AC43C46025
:1011C0009D08214CAD002D19AF689C07260F0F24F8
:1011D000B440A4463C4005273F07B84201D1002750
:1011E00019E01A4FB84201D1012714E0184FB84254
:1011F00001D102270FE0174FB84201D103270AE0BF
:10120000154FB84201D1042705E0144FB84201D16F
:10121000052700E00627B740A74210D1AE68644614
:10122000A643AE600E4C25689543256065689543DE
:101230006560A5689543A560E5689543E5605B1C1E
:101240000A46DA4099D1F0BD000001400004005088
:1012500000080050000C005000100050001C00500E
:1012600000040140F8B500230124A7E027469F4071
:101270003A4070D04D68022D01D0122D14D1DD08F6
:10128000AD002D1800952D6A5E07AC46F50E0F26B1
:10129000AE46AE406546B543AC460E697546AE40B7
:1012A00065462E43009D2E624D68012D05D0022D0E
:1012B00003D0112D01D0122D16D185680326AC461E
:1012C0005D00AE46AE406546B543AC46CE68754659
:1012D000AE4065462E43866046680D79BE43ED06F6
:1012E000ED0F9D403543456006685F000325BD4016
:1012F000AE46AE430D79B446AE07B60FBE40654666
:101300002E430660C6687546AE438D68BD403543C2
:10131000C5604D68ED0050D52B4D6E6B26436E6356
:101320009E082A4DB6007519AC46AD689E07360F6B
:101330000F27B740BD4305273F07B84201D100271B
:101340001AE0234FB84201D1012715E0214FB842DE
:1013500002D1022710E030E01F4FB84201D103272D
:101360000AE01E4FB84201D1042705E01C4FB842E5
:1013700001D1052700E00627B7402F436546AF603F
:10138000184D2E684F689643FF0300D516432E6014
:101390006E684F689643BF0300D516436E60AE6813
:1013A0004F689643FF0200D51643AE60EE684F6863
:1013B0009643BF0200D51643EE605B1C0A681546D3
:1013C000DD4000D052E7F8BD0010024000000140AF
:1013D0000004005000080050000C005000100050A5
:1013E000001C0050000401400069084000D00120AA
:1013F00070470000014800687047000004000020AA
:1014000010B506480168022211430160032000F074
:1014100007F800F007F8002010BD0000002002408F
:101420000020704770470000C106C90E01208840A7
:10143000014908607047000080E100E0C106C90E64
:1014400001208840014908607047000000E100E089
:1014500010B500F01FFE10BDBFF34F8F04490348C5
:10146000C860BFF34F8F00BFFDE700000400FA051E
:1014700000ED00E0F8B56649074601250020ED03C0
:10148000624B634A4031102F6FD011DC012F77D0AF
:10149000022F6CD0042F6BD0082F24D1C9680324ED
:1014A000240321407BD0AD109414A9427CD0A0E04D
:1014B0000326584C3604202F0BD0402F35D0FF3F49
:1014C000012F10D1C968314069D07C04A1426BD092
:1014D00096E00B690969012731403F04B94203D105
:1014E000990559E02846F8BD01256D04A94203D1AC
:1014F0009907F8D54848F8BDB142FCD11168890375
:10150000F9D5116803200005014001200005091AE2
:1015100009D0091A05D0814201D14048F8BD2046C2
:10152000F8BD3F48F8BD3F48F8BDC9680125AD0684
:10153000294006D0A942F7D191688907F4D53A48E5
:10154000F8BD11688901FBD5D068D1688002374D9C
:10155000000F2D5C0802810FD068491CC0030AD41B
:101560001068C00605D5204606E045E008E023E007
:1015700030E0184600E02E486843FEF7B9FDF8BD9C
:10158000CC68A407A40F0CD0022C0DD0012C10D0D5
:10159000032CF4D1096989050029A3DBF8BD16E005
:1015A00002E000F00BF9F9E711684907F6D5184693
:1015B000F4E700F013F9F1E7CC680C26344006D0CC
:1015C000082CF1D0042CF4D00C2CE3D0E6E700F08A
:1015D000E5F8E3E7CC680326B6023440F7D00127EC
:1015E000FF02BC42E0D07A109442E2D0B442D1D0A3
:1015F000D4E7A142DDD0D1E7916B4902E7D4CDE732
:10160000012212049142D4D0C8E700000024F40063
:101610000010024000093D008890000020A1070052
:1016200040420F0080841E00006CDC02983B0008E2
:1016300000127A00F8B5054653480E460068C00708
:10164000C00FB0420AD250480168490849003143EE
:1016500001600068C007C00FB0426FD128784B4CC2
:10166000800705D5E068F0218843A9680843E06059
:101670002878C00752D06868022817D0032818D0ED
:101680002168012818D08905002957DAE1688908FE
:1016900089000143E160FFF7ADFE69680746022952
:1016A00012D003291CD0012926D033E021688903F8
:1016B000EAE721688901E7E74907E5E7FFF79AFECE
:1016C000C11B3348814223D8E0680007800F0228FD
:1016D000F4D123E0FFF78EFEC11B2D48814217D8BD
:1016E000E0680007800F0328F4D117E0FFF782FEBF
:1016F000C11B274881420BD8E0680007800F0128F2
:10170000F4D10BE0FFF776FEC11B2148814201D9DD
:101710000320F8BDE0680007800FF3D11A48016884
:10172000C907C90FB1420BD90168490849003143C3
:1017300001600068C007C00FB04201D00120F8BDB1
:101740002878400706D5E068072109028843E96840
:101750000843E0602878000707D5E0680721C90240
:1017600088432969C9000843E06000F037F8E16860
:10177000084A0906090F515CC84007490860032060
:10178000FFF74EFE0020F8BD00200240001002408E
:1017900088130000883B0008000000200448054929
:1017A0000068C968044A4905490F515CC840704740
:1017B0000000002000100240A13B00080448054939
:1017C0000068C968044A8904490F515CC8407047E1
:1017D0000000002000100240A13B000810B5184A8C
:1017E000D1680C20084004280BD0082810D00C2801
:1017F00010D050680004410F0120C003491C8840EC
:1018000010BD1068C00601D50E4810BD0E4810BDB1
:101810000E4810BD88020E4B000F185C0902D368F9
:10182000890F491CDB0301D5084A05E01268D2067E
:1018300001D5044A00E0044A5043FEF759FC10BDAC
:101840000010024000093D000024F40000127A005C
:10185000983B0008F8B504460078FF4DC0074CD00F
:10186000E8680007800F022807D0E8680007800FAB
:10187000032809D1E868C00306D5286880033CD551
:101880006068002875D038E0012062680004824258
:1018900003D129680143296011E0052301211B04BC
:1018A00089049A422A6802D10A432A60F1E78243F6
:1018B0002A602A680240009228688843286060688D
:1018C00000280DD0FFF796FD0646E44F04E0FFF731
:1018D00091FD801BB8427DD828688003F7D50CE0C5
:1018E000FFF788FD0646DD4F04E0FFF783FD801B10
:1018F000B842F0D828688003F7D42078800741D513
:10190000E8681F270007800F3F02012807D0E8681A
:101910000007800F032809D1E868C00306D42868AF
:10192000400717D5E068012823D113E0E0680028BC
:1019300017D029680922914301432960FFF75AFD16
:10194000064604E0FFF756FD801B0228C3D828682E
:101950004007F7D568682169B84309020843686001
:1019600010E02868400840002860FFF743FD064665
:1019700005E090E0FFF73EFD801B0228ABD8286809
:101980004007F7D42078C00676D5E868B44E000743
:10199000800F0BD0E06900285DD02868FF2101315D
:1019A00008432860FFF726FD074644E028688005C5
:1019B00002D5E06900286ED0606A696831408842CB
:1019C00012D900F089FB0028AED16868616AB04383
:1019D000084300E0E4E068606868218C0002000AC7
:1019E0000906084368600FE06968B1430143696014
:1019F0006868218C0002000A090608436860606A72
:101A000000F06AFB00288FD1606A410B0120C003FF
:101A1000491C8840E968934A0906090F515CC8408F
:101A2000914908600320FFF7FBFC25E0FFF7E2FC8B
:101A3000C01B02288AD828688005F7D56868616AC3
:101A4000B043084368606868218C0002000A0906F8
:101A50000843686010E02968FF2001308143296055
:101A6000FFF7C8FC064604E0FFF7C4FC801B022811
:101A700084D828688005F7D420787C4E000723D5C9
:101A800060690028306910D0012108433061FFF7F8
:101A9000B1FC074605E009E1FFF7ACFCC01B0228DA
:101AA0007ED830698007F7D50EE0400840003061ED
:101AB000FFF7A0FC074604E0FFF79CFCC01B0228D0
:101AC0006ED830698007F7D42078400761D5A86BBD
:101AD0000027C00005D4A86B012109070843A863AB
:101AE000012763480168C90511D4016882151143B3
:101AF0000160FFF77FFC009005E0FFF77BFC009999
:101B0000401A64284CD85A480068C005F5D5FF2013
:101B1000A2680130824203D131690143316111E091
:101B200001218902002A07D005231B029A4203D112
:101B300032690A433261EFE73269824332613069C8
:101B400088433061A06800280ED0FFF753FC009056
:101B500006E0FFF74FFC0099411A404881421FD828
:101B600030698005F5D50DE0FFF744FC009006E0F4
:101B7000FFF740FC0099411A3848814210D830697B
:101B80008005F5D4002F04D0A96B01200007814304
:101B9000A9632078800630D53649A0694A1400E050
:101BA0007DE0002816D0AB6801200343AB606B6B6F
:101BB00003436B63086A10430862FFF71BFC064689
:101BC00004E0FFF717FC801B022868D8A86880078C
:101BD000F7D512E0A86840084000A860086A904362
:101BE0000862FFF707FC064604E0FFF703FC801BD2
:101BF000022854D8A8688007F7D4A06A002853D0D8
:101C0000E9680907890F032950D001263606022802
:101C1000286805D0B0432860FFF7ECFB044640E09D
:101C2000B0432860FFF7E6FB074604E0FFF7E2FB5E
:101C3000C01B022833D828688001F7D4216BE06AE2
:101C4000EA680843616BFD231B049A431143084370
:101C5000E860286830430FE000100240881300005D
:101C600000E00000883B0008000000204010024017
:101C700000700040000001402860FFF7BBFB0446F5
:101C800004E0FFF7B7FB001B022808D82868800192
:101C9000F7D509E0FFF7AEFB001B022801D90320AE
:101CA000F8BD28688001F5D40020F8BD0120F8BDFA
:101CB00070B5040019D024212046603006464172D8
:101CC0002068016849084900016020680025056016
:101CD0002068456020688560204600F06FF8E56662
:101CE0007572B5723572002070BD012070BD0000A4
:101CF000034910B5884201D100F0CBF910BD0000B6
:101D00001808002070B50168CA69D2061FD50A6894
:101D1000D2061CD5044608681025A8430860204652
:101D200000F016F921680820086221680120086285
:101D3000216802200862216804200862216880046A
:101D4000086220680562206801682943016070BD4F
:101D500070B5040005D025466035687A002802D0A9
:101D600006E0012070BD00202872204600F04EF8E9
:101D70002420687220680168490849000160606A8F
:101D8000002802D0204600F009FA204600F0C4FAEC
:101D90000128E7D0206841680922D20291434160BE
:101DA000206881682A2291438160206801680122AD
:101DB00011430160204600F057FA70BD70B504462B
:101DC000104884421DD110498A6A01204004024310
:101DD0008A628A6A82438A6205252D070421284681
:101DE000FFF7C8F908212846FFF7C4F9606E0028FC
:101DF00001D0FEF783FD0B20FFF716FB1C20FFF739
:101E000013FB70BD180800200010024070B5054695
:101E10002B4886B0854250D12A49CA6A0120024324
:101E2000CA62CA6A02400592CA6A0243CA62CA6AA0
:101E3000024005928A6B43041A438A630A6B024389
:101E40000A63096B04260140009605910290022165
:101E50000320052401912407039069460496204637
:101E6000FFF700FA08200090694604962046FFF725
:101E7000F9F9164C144820600020A060E060802131
:101E800060612161A0612020E06100026660206243
:101E90002046FEF75DFF6C66002211460B20A5620E
:101EA000FFF7D6FA0B20FFF7C9FA012200211C2008
:101EB000FFF7CEFA1C20FFF7C1FA06B070BD000094
:101EC000180800200010024058000240B80300200B
:101ED000F8B5054604466035A87A20282FD1002998
:101EE0002BD0002A29D0287A012828D00120287256
:101EF0005820616502530026E6662220A872636EB0
:101F00001048D862636E10481863636E0F485863B8
:101F1000134627680A4639462431606EFEF79CFF57
:101F2000206881684022114381602E722068016818
:101F30001022114301600020F8BD0120F8BD0220ED
:101F4000F8BD0000EB2200080D230008C92200089C
:101F500070B51A4988422FD1416E09680A68520843
:101F600052000A605821095A406E00684268891A76
:101F70008DB20168012211430160114C2188114882
:101F80008D42218804D9691A8AB2218841180EE04D
:101F90008D4210D2218821221201511A8AB2218841
:101FA00041180748001D01F00DFC06492A46044867
:101FB000001D01F007FC258070BD000018080020FE
:101FC00018000020080600207047FFB506460446AA
:101FD0006036707A83B00D46202858D1002D0CD081
:101FE0000598002809D00120A1680003814207D18B
:101FF0002069002804D1E80702D0012007B0F0BD15
:10200000307A012843D0012030720020E066212080
:102010007072FFF7EFF90190274640370598388234
:102020000598788218E0788A401E78820698009099
:10203000002280212046019B00F086FA002818D15A
:102040000120A1680003814202D12069002812D03A
:102050002168287888626D1C788A0028E3D1069868
:102060000090002240212046019B00F06DFA0028DC
:1020700008D00320C2E728882168C005C00D886207
:10208000AD1CE9E72020707200203072B6E7022014
:10209000B4E770478307FF22DB0E9A408907090ED9
:1020A000994000280BDA0007000F08388308084819
:1020B0009B001818C36993430B43C361704783089F
:1020C00004489B001B181868904308431860704729
:1020D00000ED00E000E400E070B517490023CA6895
:1020E0001206120F18D18A6B154CD500134A02D56F
:1020F0001268224009E08E6B01252D072E438E6366
:1021000012688E6B2240AE438E63A24204D103213B
:102110008903884200D101230A480168490849001F
:10212000194301600068C007C00F984201D0012028
:1021300070BD002070BD0000001002400070004023
:102140000018000000200240104801688215114369
:102150000160C1680E4A1140C16001680D4A11401A
:102160000160816849084900816001680122920488
:1021700091430160C168FD2212049143C1600021B6
:1021800001610549C00388607047000000100240EB
:102190000C40FF88F6FFF6FE00ED00E010B5818CE4
:1021A000C90707D001684A6801235B049A43836A20
:1021B0001A434A60818C890707D501684A68012360
:1021C0001B049A43C36A1A434A60818C490707D5A6
:1021D00001684A6801239B049A43036B1A434A60CF
:1021E000818C090707D501684A680123DB039A43FC
:1021F000436B1A434A60818CC90607D5026891680F
:1022000001231B039943836B19439160818C8906D9
:1022100007D501688A6801235B039A43C36B1A439D
:102220008A60818C490612D503685A680121090524
:10223000046C8A4322435A60026C8A4207D10268C6
:10224000516803235B059943436C19435160818CAA
:10225000090607D501684A680123DB04806C9A43AC
:1022600002434A6010BD0000F8B500260446C66669
:10227000FFF7C0F8054620680068124F000709D52F
:1022800001212B46002249052046009700F05CF909
:1022900000280DD12068006840070BD501212B468E
:1022A000002289052046009700F04EF9002801D051
:1022B0000320F8BD202060346072A07226720020D6
:1022C000F8BD0000FFFFFF0110B5806A0022014643
:1022D00040314A834A8220226A210A54C16E102268
:1022E0001143C166FFF704FD10BD816A00680068F4
:1022F00080060AD400225A2042520868826840238D
:102300009A438260202060318872704710B5806ADD
:10231000FFF75AFE10BD0000FEB504460168806854
:102320002269E36910436269102700261A431043AB
:102330000A683546784B1A4002430A6020684168B3
:10234000032212039143E26811434160734A2168FA
:10235000A069914201D0226A10438A680B231B02B4
:102360009A4302438A606E4A20686E4990420CD1BB
:10237000C8688007800F06D0012843D002283FD0CC
:10238000032826D124E0012723E0674A90420AD19E
:10239000C8680C21084031D0042833D008282FD039
:1023A0000C2816D114E0614A904227D0604A90422E
:1023B00024D05A4A90420CD1C968032080020140BF
:1023C0001CD01015091A1DD0091A19D0814200D14C
:1023D00008270220FFF74EF80190504B5149226820
:1023E0004039D81300929A4235D1002F0CD0022FD9
:1023F0000DD0042F12D0082F1CD113E00027E8E7DE
:102400000227E6E70427E4E7FFF7C8F908E00868D1
:10241000C00601D5474805E0474803E0FFF7DEF96D
:10242000002873D0626851005118814202D811030C
:10243000814201D2012569E0010E06025008002305
:1024400030185941FDF76AFE032109023B4A411A3F
:10245000914259D9EEE7E26982422DD13B0000F06A
:10246000D6F80906080B24192424241F24000198F7
:1024700012E0FFF7A3F90FE008686168C00602D513
:1024800048082F4A01E02F4A48088018FDF730FE1F
:1024900086B20BE0FFF7A2F9616840004A08F4E752
:1024A0006168012248081204EFE70125310909019A
:1024B0003007400F084327E03B0000F0A8F8090769
:1024C0000A0D061D060606290600B3E7FFF766F9A2
:1024D00014E0FFF773F911E008686168C00602D5DF
:1024E0004A08144801E014484A081018FDF700FE95
:1024F00081B20098C16009E0FFF770F961684A088D
:102500008018FDF7F5FD80B22168C8602846FEBD41
:1025100061684A08E9E70000F369FFEF00480040FE
:10252000003801404010024000440040004C004090
:102530000050004000093D000024F400FFFC0F00A3
:1025400000127A000048E801FFB581B017460E4638
:1025500004460A9D1DE0681C1BD0002D05D0FEF727
:1025600049FF0499401AA84213D920680168FF2244
:10257000A132914301602068816849084900816067
:10258000202060346072A07200202072032005B009
:10259000F0BD2068C1693046884304D00020B842AD
:1025A000D9D00020F3E70120F9E7000010B5024878
:1025B000FFF7A8FB10BD00001808002037B514462F
:1025C0000846064B6A46214600F0EAF8044669468A
:1025D000002000F081FC20463EBD0000D92E0008FE
:1025E0002021020C01D010211046020A01D0104611
:1025F0000839020901D01046091F820801D010468F
:10260000891E420801D0881E7047081A704730B4EE
:102610007446641E2578641CAB4200D21D46635D7F
:102620005B00E31830BC184702E008C8121F08C15D
:10263000002AFAD170477047002001E001C1121F43
:10264000002AFBD170470000F0B51FB484B0079892
:102650000699020D014314D04A484B4910184843CB
:1026600005140F9801280E981CD0281A401C00242D
:10267000464E4749009401910290002814DA4742DF
:1026800027E00F98012443A3012808D000210498D3
:102690000F9A84600360C260416009B0F0BD0E987B
:1026A000C143F4E74042E2E7074612E0F80707D0EB
:1026B0002246334601990098FDF78EFE0191009065
:1026C0002246334610461946FDF786FE04460E465E
:1026D0007F10002FEAD10298019B0028009A0799E9
:1026E000069802DAFDF778FE01E0FDF7DDFE04460C
:1026F0000E460022284BFDF76FFF03D80020C04391
:10270000014607E00022254B20463146FDF7B2FD89
:10271000FDF742FF102409E0002C0ADB0A22002307
:10272000FDF7FCFC059B30321A55641E02460A4335
:10273000F2D11122641C059B121B1C190F9B012B4B
:1027400003D0012308430ED10AE0084304D011202E
:102750000E9000200F9084E70E98151A6D1E0BE066
:102760000E98824202DD00236D1C03E0824201DAF2
:1027700000236D1E002BEED004980F998260C1607B
:1027800030C08AE701FCFFFF104D0000000024402C
:102790000000F03F300000000000F0430000E03F88
:1027A000FFB597B00646002518E2252877D100240A
:1027B0002746FD49049400E00443761C327801204A
:1027C000203A90400842F7D130782A280ED00222D1
:1027D000307801463039092916D804990A2359431B
:1027E000303940181443761C0490F1E7189802C859
:1027F00004911890002904DA012040030443484260
:10280000049002200443761C30782E2814D1042032
:1028100004437078761C2A2809D11898761C80C841
:10282000189009E00A214F43303FC719761C3078D1
:10283000014630390929F5D930786C2810D006DCEA
:102840004C281AD068280ED06A2817D104E07428C2
:1028500013D07A2812D110E00120400504430CE087
:102860000121090501E0032109050C43717881422A
:1028700003D1012000052418761C761C30781190B5
:1028800066280BD013DC58287DD009DC00287BD0CB
:102890004528F6D04628F4D047281AD1A5E118E0FB
:1028A000632835D0642870D0652812D19DE1702846
:1028B0006CD008DC6728F1D069287BD06E280DD059
:1028C0006F2806D1BAE073282ED0752871D07828E9
:1028D00059D01A9A199990476D1C7EE16002400FF9
:1028E000022809D003280DD00428189801680DD0BB
:1028F0000D60001D189070E11898EA1701680D60CE
:102900004A60F6E7189801680D80F2E70D70F0E76D
:1029100018986A4601781172001D189000205072B4
:1029200002A80090012005E0189802C81890002025
:102930000091C04361070DD5002101E00199491CB8
:102940000191B94212DA8142F8DB009A515C002908
:10295000F4D10BE0002101E00199491C0191814271
:10296000FADB019A0099895C0029F5D10199049854
:102970001A9B471A21463846199A00F097FA01998E
:10298000401945180BE04FE02CE113E04EE00098B1
:1029900000990078491C00911A9A1999904701985A
:1029A000401E0190401CF2D1214638461A9B199ACC
:1029B00010E137E00A200021009001916002410FF0
:1029C000022907D0189A01CA1892C21794460329FF
:1029D00008D00AE01898C01DC108C90005C918919F
:1029E000944607E000B2C2179446042902D140B2CF
:1029F000C1178C4600226146944506DA0A4600213A
:102A0000404291418C462D2102E0210504D52B2125
:102A10006A461173012103E0E10701D02021F7E7A5
:102A2000029155E00A200AE0102008E010200090F2
:102A30000021042004430191082703E0082000211D
:102A4000019100906002410F022907D0189A01CA33
:102A5000189200229446032908D008E01898C01D57
:102A6000C108C90005C91891944603E080B2042941
:102A700000D1C0B200210291210729D511997029F6
:102A800006D0009A1021019B4A401A4305D00EE05F
:102A900040216A461173012108E06146014306D0D6
:102AA00030216A4611731199517302210291009AE3
:102AB0000821019B4A401A430AD16146014301D1D2
:102AC000610705D530216A46117301217F1E0291ED
:102AD0001199582904D035A10E910DA90D910DE041
:102AE00037A1F9E76146019B009AFDF717FB0E9BA2
:102AF0008C469B5C0D9A521E0D92137061460143E9
:102B0000F0D10D9805A9081A20300190600703D56F
:102B100001200004844300E001270198874201DD81
:102B2000381A00E000200199009041180298091815
:102B30000498401A0490E00306D421461A9B199A7F
:102B4000049800F0B3F94519002706E003A81A9A83
:102B5000C05D199990476D1C7F1C02988742F5DB78
:102B6000E0030CD521461A9B199A049800F09EF9AF
:102B7000451904E01A9A3020199990476D1C009964
:102B8000481E00900029F5DC08E00D980D990078AA
:102B9000491C0D911A9A199990476D1C0199481E6C
:102BA00001900029F1DC63E1092801003031323362
:102BB0003435363738396162636465660000000079
:102BC0003031323334353637383941424344454663
:102BD0000000000000F05AF94519761C30780028F2
:102BE00000D0E2E528461BB0F0BD600700D4062700
:102BF0001898C01DC108C90048680A680831C30F89
:102C0000DB071891190001D09CA108E0210501D52E
:102C10009BA104E0E10701D09AA100E09AA1430042
:102C200011985B08109165280CD006DC452809D066
:102C300046281DD0472841D141E0662818D0672892
:102C40003CD13CE00021112F01DB112000E0781C79
:102C50000191009008A911A8FFF7F6FC13990591BE
:102C60000021119A15927F1C12980197009150E053
:102C70000120C00703900120019008A9009711A826
:102C8000FFF7E2FC139A149905920022119B00921F
:102C900012981593059A0192002901D0104602E07E
:102CA000791C40180190381A01D5019804E040427F
:102CB000401E0090781C0190C01B029043E0012F41
:102CC00000DA01270021112F01DD112000E0384634
:102CD0000191009008A911A8FFF7B6FC139905917E
:102CE000119A0021129815920091019721070CD496
:102CF0000599B94201DB019900E00191012904DD48
:102D0000159A491E515C302906D0B84201DA011DDE
:102D100005DA0121029115E00199491EEDE700282D
:102D200005DC0099411800910199091A03E0019A04
:102D3000411C914200DD01910099401A401C029013
:102D40000120C0070390200706D402990198814210
:102D500002DB0020C043029000206946C87707AF1D
:102D6000012103980337C907884224D0022011901B
:102D70002B201290039800280CDA404203902D205B
:102D8000129007E00A210398FDF7B2F930317F1E57
:102D9000039039701199481E11900029F2DC0398B4
:102DA0000028EFD1791E1298087030782021084051
:102DB0004530BF1E387006A8C01BC01D0390109878
:102DC0000078002800D00120019941180298C0170E
:102DD0000918039809180498401A401E0490E0034B
:102DE00006D421461A9B199A049800F05FF84519F9
:102DF00010980078002803D01A9A199990476D1CF2
:102E0000E00324D521461A9B199A049800F04EF845
:102E100045191CE00098002807DB009905988842B6
:102E200003DD1598405C199901E0199930201A9A30
:102E3000904700986D1C401C00900298401E029024
:102E4000002804D11A9A2E20199990476D1C0199D7
:102E5000481E01900029DDDC05E038781A9A7F1CB5
:102E6000199990476D1C0399481E03900029F4DCC2
:102E700021461A9B199A0498ACE600002D00000028
:102E80002B0000002000000000000000F8B5044600
:102E900000251E461746880404D405E03946202044
:102EA000B0476D1C641EF9D52846F8BDFFB5044631
:102EB000002581B01E46C80301D5302700E0202739
:102EC000880404D505E038460399B0476D1C641E9C
:102ED000F9D5284605B0F0BD0A68531C0B60107088
:102EE00070470000024800210170416070470000F7
:102EF0000800002070B50F4D2978002902D000F09D
:102F000067F870BD0B490C4A002449680D2806D0AB
:102F10000A4B994207DA5054491C696070BD5454F9
:102F200000F062F903E00020C04300F009F86C6093
:102F300070BD000008000020400000200F020000CB
:102F400010B5002804D0014603A000F08BFD10BD91
:102F500004A000F087FD10BD2B4552523D25640DA5
:102F60000A0D0A002B4F4B0D0A0D0A000A4610B538
:102F7000014602A000F076FD10BD00002B4556452D
:102F80004E543D25642C25640D0A0D0A00000000F6
:102F900070B50E460546FDF715F900280AD02878C9
:102FA000302806D102240CE0285D302803D03128D7
:102FB00001D0002070BD3168490030394018641CD0
:102FC00030602846FDF7FEF8A042EDD8012070BD24
:102FD00010B50B4A094B11785854491CC8B21070EF
:102FE000802809D31946506800F05EFD40B2FFF713
:102FF000A7FF04490020087010BD000098020020BF
:10300000100000200800002010B500F029FA10BDC3
:1030100010B500F041FAFEF71FFA10BD10B502A07E
:1030200000F020FD10BD00002B4F4B0D0A0D0A00D3
:1030300010B54188002902D00020C04305E040308F
:103040000079002804D00120C043FFF779FF10BDAC
:1030500001A000F007FD10BD2B4F4B3D300D0A0DB8
:103060000A00000010B54188022902D00020C043A8
:103070001BE04421095C012902D00120C04314E077
:1030800040680B4900F04CFC00280CD00849002097
:10309000091F0870FF2101310648FDF788F806492D
:1030A0000120087010BD0220C043FFF749FF10BD8A
:1030B00014000020980200200800002070B504468B
:1030C0004088022802D00020C04322E04420005D56
:1030D000022802D00120C0431BE00F49606800F0C5
:1030E0001FFC0225ED4300280CD00B4A0B49121F90
:1030F000A06800F0D0FB002804D00748001F01782A
:10310000802901D0284604E00449406800F0CCFC46
:1031100040B2FFF715FF70BD140000209802002098
:1031200010B54188022902D00B4A914210D140309B
:103130000079002804D00120C043FFF701FF10BD33
:1031400000F0F2FC40B2FFF7FBFEFFF761FF10BD9D
:103150000020C043F1E70000FFFF000010B54188E8
:10316000022902D00B4A914210D140300079002848
:1031700004D00120C043FFF7E3FE10BD00F0DEFCE9
:1031800040B2FFF7DDFEFFF743FF10BD0020C04354
:10319000F1E70000FFFF000010B54188022902D0CE
:1031A0000B4A914210D140300079002804D0012010
:1031B000C043FFF7C5FE10BD06A000F053FC02217E
:1031C0000020FFF7D3FE10BD0020C043F1E7000050
:1031D000FFFF00002B4F4B0D0A0D0A0010B5FFF743
:1031E00081FE00F057FC10BDF8B54B4F7A68002AFD
:1031F0007EDD4B4949480880002548800C46403414
:10320000257128468100464E401C89194D601028C2
:10321000F8DB022A05D143A14348FCF7DAFF002876
:1032200007D0032241A14048FCF7E6FF002861D106
:1032300002E03B48058064E003218C4600207A6868
:1032400016E0394B5E5C0023394FFF5CB74201D179
:103250009BB203E05B1C032BF6DB304B304E7380DC
:103260002E4EB34203D030484554481C02E0491C5E
:103270009142E6DB2A4F29497B888B4223D0257176
:10328000014612E02A4E284B761E5B5C36789E4241
:103290000AD1254B5D54181823799B00DB1958601F
:1032A0002079401C2071481C491C13469142E9DBDF
:1032B000984208DA1C49081821798900C919486020
:1032C0002079401C207118496046194D0E180124C0
:1032D000ED1CE00028583146FCF77BFF00280ED09B
:1032E000641C082CF5DB0D480C493880884200E04E
:1032F00004E006D10020C043FFF722FEF8BDA0B2D3
:10330000F2E707480088C1000948C01C0818416856
:1033100003488847F8BD000008000020FFFF0000B8
:1033200050020020415400004000002041542B0076
:10333000AD3B000808B503E068460078FFF7DAFD0A
:10334000684600F083FB0028F6D108BD10B541881F
:10335000002902D00020C04305E040300079002859
:1033600004D00120C043FFF7EBFD10BD0022052370
:10337000114604A000F076FB07A20AA10CA000F001
:1033800071FB10BD2B4F4B3D25642E25642E25303F
:1033900032640D0A0000000031303A35333A3337D9
:1033A0000000000053657020313820323031370082
:1033B00025732025730D0A0D0A00000070B5084D15
:1033C000040AEE1DC3B2F93605E0087858402B5CBC
:1033D0006340345C491C521EF7D22002184370BD72
:1033E000F03B000870B50D460646FCF7EBFE0028E2
:1033F00013D000240BE0315D0846303809280DD881
:1034000028680A22504330380818641C2860304667
:10341000FCF7D8FEA042EED8012070BD002070BDA0
:1034200070B50C4D0C490D4A00280ED096690C461B
:103430000B214903284600F0DEF8002804D032466C
:103440002146284600F0B8F870BD2C460D46D668D7
:10345000EEE700000040000800A0010898030020EB
:1034600010B5202209490A4800F008F9074809491F
:1034700002688A4209D00160012141600021816017
:10348000C160016141618161C16110BD980300208B
:1034900000000808B55959B510B520220249034863
:1034A00000F0FAF810BD00009803002000000808A2
:1034B00070B5002000F034F800280CD015480168E1
:1034C000154A1140C203914204D14168006880F35B
:1034D0000888884770BD012000F022F800250F4CB5
:1034E00000280ED00120FFF79BFF002806D0656062
:1034F0006069A060A069E060E0692061FFF788FD75
:1035000070BDA560E56025616561A5610120E5618B
:103510006060F3E7004000080000FE2F98030020E1
:10352000F0B52149A3B000280ED04869002836D054
:103530001E4800908C69C86967067F0E00250190BF
:10354000E01B1B4E029015E08868002827D0194820
:103550000090CC680869EFE700988022401903A921
:1035600000F08CF8802203A93046FFF727FF0646BB
:1035700002988035A842EFD8002F0CD000983A4628
:103580000019C01B03A900F079F83A4603A9304698
:10359000FFF714FF06460198B04202D1012023B084
:1035A000F0BD0020FBE700009803002000A0010808
:1035B000FFFF000000400008F7B5012614460F4643
:1035C000900703D0A007800F141A241DFDF7B4FD47
:1035D00000250AE000987A5941190220FDF78EFD76
:1035E000002801D0002602E02D1DA542F2D3FDF7F0
:1035F00043FD3046FEBDF0B50746012585B00C46BB
:10360000480603D06006400E0C1A8034002603964C
:10361000FDF792FDE009029003A901970096684624
:10362000FDF742FC002800D00025FDF725FD2846C7
:1036300005B0F0BD00B585B0FDF77EFD0E490D4823
:103640008861FDF719FD6846FDF76AFC6846007C55
:10365000BB280DD0FDF734FD02200090BB20694649
:1036600008746846FDF776FCFDF710FDFDF71EFDBA
:1036700005B000BD002F03000020024010B50B462E
:10368000910703D09107890F521A121D014618465F
:10369000FCF774FD012010BDF7B5012614460F4656
:1036A000900703D0A007800F141A241DFDF744FDD6
:1036B00000250AE000987A5941190220FDF71EFD05
:1036C000002801D0002602E02D1DA542F2D3FDF70F
:1036D000D3FC3046FEBD70B50C460646FCF772FDC5
:1036E000022826D93078302823D102251AE0725DCD
:1036F00010463038092803D82068000130380EE021
:1037000010466138052803D820680001573806E0C4
:103710001046413805280CD82068000137381018A9
:103720006D1C20603046FCF74DFDA842DFD801201B
:1037300070BD002070BD000000B50B4887B0C26AA4
:1037400001210A43C262C06A00910840059000202E
:103750000190032003900291052069460007FDF7C0
:1037600081FD07B000BD000000100240FDF748FEDB
:1037700000F004F9FFF7E0FFFFF75CFF00F042F90B
:10378000FFF742FC052001210007FDF72DFE0C4943
:10379000002803D0486800280FD001E001204860CD
:1037A00000204860FFF778FE02210020FFF7DEFBD3
:1037B000FFF714FDFFF7BEFDFCE7FFF779FEFEE71C
:1037C0009803002070B504460E46408821881546AF
:1037D000884203D3A288121A511800E0091AA9429C
:1037E00001DA002070BDA18842198A4213D30A1A57
:1037F000A16808183146FCF7C1FC6088A18842190D
:10380000521A8919091AA068FCF7B8FC6088A188C7
:103810004019401A07E0A1682A4608183146FCF70B
:10382000ADFC608840196080012070BDF8B5044689
:10383000438815460088A2880F46834202D3D11AD6
:10384000091800E0C11A511A89B2A94200D20D46E6
:103850002688A1688919834206D32A463846FCF790
:103860008DFC2088401913E043199342F5D3121AB6
:103870003846FCF783FC2088A1884219521AC919DE
:10388000081AA168FCF77AFC2088A1884019401A20
:1038900020802846F8BDF7B5002014460E4610706B
:1038A000054607462DE00098C05D014630390929DC
:1038B00009D8002D04D02178725C1201303A19E049
:1038C0002078315428E001466139052908D821784B
:1038D000002D03D0725C1201573A0BE057381AE002
:1038E00001464139052913D82178002D12D0725C88
:1038F0001201373A801870542078401C207000253F
:103900007F1C0098FCF75EFCB842CCD8002D05D097
:103910000020FEBD373870540125F1E70120FEBDBF
:1039200070B50446002008600D462046FCF74AFCAE
:1039300000281CD02046FCF745FC022804D8294664
:103940002046FFF74FFD0FE020783028F7D162784E
:10395000782A0DD0582A0BD0622A01D0422AEED103
:1039600029462046FFF714FB002800D0012070BD37
:1039700029462046FFF7AFFEF6E7000010B594B0E9
:1039800014210EA8FCF713FC38216846FCF70FFC45
:103990000220009001210A90039180040C900024E1
:1039A0000001019410210D900B9404916846FDF7DD
:1039B00051FF002800D0FEE71048816B020411433C
:1039C00081630F4801680322D2029143C21489180F
:1039D00001604168C943C906FBD50F200E90032042
:1039E0000F9010941194012112940EA8FDF722FE5D
:1039F000002800D0FEE714B010BD00000010024007
:103A00000070004010B5104C0E4820604B200002A2
:103A100060600020A060E0602061A0610C20606117
:103A20002046FEF745F9002800D0FEE70648FEF7DD
:103A30008FF9002800D0FEE72068016801221143B9
:103A4000016010BD004400401808002010B5014678
:103A500001220348FFF7EAFE002800D0012010BD34
:103A60001C0000200FB410B503AA07480299FEF706
:103A7000A5FD82B2054B04490548FEF7A6FA10BC25
:103A800008BC04B018470000F8030020B80B000081
:103A9000180800202122034910B512018818FEF7EA
:103AA00017FA10BD08060020F8B50927FF431C4D82
:103AB00000280ED0AA697F32D20982422DD3194A3A
:103AC000C00180188022FFF7E7FD002823D00020E6
:103AD000F8BD0C46C86A6969884207D10120FFF722
:103AE0001FFD002802D00720C043F8BD0B26606AE6
:103AF0007603B04202D90820C043F8BDE16A69618B
:103B0000A861A06AE861FFF7C7FC0648314680302B
:103B1000FFF771FDD9E73846F8BD0220C043F8BD74
:103B200098030020809F01080348002141618161C2
:103B3000C1614160084670479803002070B5114C80
:103B40000A26A1686069F6430025884201D16560B4
:103B500016E00120FFF7E4FC00280DD00120FFF75C
:103B60005FFC002808D065606069A060A069E06023
:103B7000E0692061002070BD65606561A561E56157
:103B8000304670BD980300200000000000000000D7
:103B90000102030406070809030406080C10182094
:103BA0003000000000010203040000002C3F3D2013
:103BB000283E00081D300008243E00084D33000850
:103BC000043E000899310008103E000865300008E6
:103BD000FC3D00085D310008183E00082131000856
:103BE0002C3E000831300008F03D0008BD300008D0
:103BF00000C1814001C0804101C0804100C18140BD
:103C000001C0804100C1814000C1814001C08041AC
:103C100001C0804100C1814000C1814001C080419C
:103C200000C1814001C0804101C0804100C181408C
:103C300001C0804100C1814000C1814001C080417C
:103C400000C1814001C0804101C0804100C181406C
:103C500000C1814001C0804101C0804100C181405C
:103C600001C0804100C1814000C1814001C080414C
:103C700001C0804100C1814000C1814001C080413C
:103C800000C1814001C0804101C0804100C181402C
:103C900000C1814001C0804101C0804100C181401C
:103CA00001C0804100C1814000C1814001C080410C
:103CB00000C1814001C0804101C0804100C18140FC
:103CC00001C0804100C1814000C1814001C08041EC
:103CD00001C0804100C1814000C1814001C08041DC
:103CE00000C1814001C0804101C0804100C18140CC
:103CF00000C0C101C30302C2C60607C705C5C4048C
:103D0000CC0C0DCD0FCFCE0E0ACACB0BC90908C8FB
:103D1000D81819D91BDBDA1A1EDEDF1FDD1D1CDCEB
:103D200014D4D515D71716D6D21213D311D1D0105B
:103D3000F03031F133F3F23236F6F737F53534F44B
:103D40003CFCFD3DFF3F3EFEFA3A3BFB39F9F838BB
:103D500028E8E929EB2B2AEAEE2E2FEF2DEDEC2CAB
:103D6000E42425E527E7E62622E2E323E12120E01B
:103D7000A06061A163A3A26266A6A767A56564A40B
:103D80006CACAD6DAF6F6EAEAA6A6BAB69A9A8687B
:103D900078B8B979BB7B7ABABE7E7FBF7DBDBC7C6B
:103DA000B47475B577B7B67672B2B373B17170B0DB
:103DB00050909151935352929656579755959454CB
:103DC0009C5C5D9D5F9F9E5E5A9A9B5B995958983B
:103DD000884849894B8B8A4A4E8E8F4F8D4D4C8C2B
:103DE000448485458747468682424383418180409B
:103DF0004657424C4F434B42000000004657444F49
:103E00004E450000465755504441544500000000BF
:103E10004657424C4F434B00465743414E43454C57
:103E200000000000564552004154000043555246E0
:103E300057000000543E0008000000202800000049
:103E4000282600087C3E000828000020700E000094
:103E50003826000880841E000000000000000000DA
:103E60000000000000000000000000000000000052
:0C3E700000000000100200008808002084
:020000040800F2
:10400000F8480020D5400008ED9A000841880008D3
:1040100000000000000000000000000000000000A0
:104020000000000000000000000000000BE7000896
:10403000000000000000000089AC0008E501010854
:10404000E7400008E74000087BB40008E7400008AC
:10405000E7400008A5520008B5520008C552000804
:10406000E7400008E7400008E74000086D520008FC
:10407000E7400008E7400008E7400008E740000884
:10408000E7400008E7400008E740000800000000A3
:10409000E7400008E7400008E7400008E740000864
:1040A000E7400008E7400008E7400008350A01083B
:1040B000450A0108E740000800000000E74000084A
:1040C0000348854600F044FC0048004709440108C5
:1040D000F84800200448804704480047FEE7FEE710
:1040E000FEE7FEE7FEE7FEE779020108C1400008AF
:1040F00030B50B46014600202022012409E00D4680
:10410000D5409D4205D31D469540491B2546954007
:1041100040191546521E002DF1DC30BD70B500244B
:104120002546002801DA01244042002901DA012550
:104130004942FFF7DDFFAC4200D04042002C00D0E6
:10414000494270BDF0B51FB40646002082B0054656
:104150004024019100901BE0019922460F46304611
:1041600000F0FAFA049A059B801A994110D3104680
:104170001946224600F0E0FA361A8F41019722468E
:1041800001200021009F00F0D7FA38184D4100901F
:104190002046641E0028DFDC019B00982946324639
:1041A00007B0F0BDF0B51FB486B0002000900190BC
:1041B00002900698069980B204900798090C0204B0
:1041C0000014114307900027089D099806913E4668
:1041D0003C4603900398A9B20204000C0390049893
:1041E0002D0C154348430021224600F0A5FAC719BB
:1041F000714110340E46402CECDB3846029A00F038
:104200009BFA009A019B80180090594102980191F5
:10421000103002904028CCDB00980BB0F0BD034674
:104220000B439B0703D009E008C9121F08C0042AEA
:10423000FAD203E00B780370401C491C521EF9D2DD
:104240007047D2B201E00270401C491EFBD2704799
:104250000022F6E710B513460A4604461946FFF752
:10426000F0FF204610BD421C0178401C0029FBD104
:10427000801A704730B504460020034600E05B1CFE
:10428000934203D2E05CCD5C401BF8D030BDF8B562
:104290000E460546002400E0641C285D00F080FA0C
:1042A0000746305D00F07CFA381A02D1295D0029FA
:1042B000F2D1F8BDF7B5054600200E46044600E0F1
:1042C000641C02998C420BD2285D00F069FA074603
:1042D000305D00F065FA381A02D1295D0029EFD16E
:1042E000FEBD0321001D401E037812021A43491E21
:1042F000F9D5104670470000F0B50746084658400B
:1043000087B0C00F049048000E4659004008490885
:10431000BC1A884105D2384631461E4617460B4620
:1043200002465800400810434CD0300D0390400521
:104330005900400D490D0590401A0290402872DA4C
:1043400018030121000B090508430190049800920D
:10435000002805D001995242002088410092019026
:10436000029840210A1A0199009800F0E5F90546E3
:104370000C466B4607CB00F000FAC0197141039A56
:104380000E0D0023D71756401A467A40164344D0E4
:10439000049A002A2DD0029A012A039A15DC1205EC
:1043A000C01A914101263605001C7141D20F059EAD
:1043B000D2070093019202962A46234600F003FAA0
:1043C00007B0F0BD38463146FAE71605224A0F46D7
:1043D000B218C01AB74101210905001C4F4100184D
:1043E0007F41114618187941E20F10436D1964415D
:1043F00013E0E2076D0815436408C2071443039AEB
:1044000001261205C01A91413605001C7141CE07E4
:10441000400830434908C01851412A46234600F05D
:10442000C5F9CDE7FFE7049801224000C117121A31
:1044300000238B4104983146C417381AA141EEE796
:1044400030B40124E407634030BC55E730B40124A4
:10445000E407614030BC4FE70000E0FFF0B51FB457
:1044600088B00B990998002448400999C00F490069
:1044700049080991C0070B990090490049080B9120
:1044800009990898A64608431CD00B990A98084336
:1044900018D0099801244000420D4800410D0998A8
:1044A00024050003000B204309900B980003000B28
:1044B00020430B9050181C494018002201901446CC
:1044C000104605E0002001460DB0F0BD032801DADA
:1044D000034600E003239C46C11A0AAE0AE05F00CF
:1044E00008ADED5B4F00F75B7D430027AA187C41C8
:1044F000491C5B1E6145F2DD410004AB5A522104A8
:10450000120C0A43240C401C0828DFDB019802909F
:104510000099704601910090059B049A07990698AE
:1045200000F051F9D0E700000DFCFFFFF0B50C469C
:104530005C4085B0E40FE40703944C000026640857
:1045400059009446490802460296224321D0624609
:104550000A431ED06200570D4A000E032303550D77
:10456000012402462C492405781B1B0B360B4018EE
:1045700023432643614600901C46501AB44103D39E
:104580000098401C009002E0921800985B410028BF
:1045900003DA0020014605B0F0BD00200121090525
:1045A0000746864611E064461D46141BB54106D3F6
:1045B0006546521BB341744607430C43A646CD07DC
:1045C00040084908284392185B4105460D43EAD14B
:1045D0001046184313D060461946504071400843B6
:1045E00006D06046101AB34106D20122002306E02D
:1045F00000220123DB0702E00122D243531000987E
:1046000074460105381C6141029C039D00196941F3
:1046100000F0CCF8BFE70000FD03000070B54B00D0
:104620005B0803430BD04B005C0D0026334665420C
:10463000B341D417AD1AA34102DB0020014670BD7F
:1046400012053018514170BD0EB5C217C10F504050
:10465000CA0740180021054B0293019200910A46B7
:104660000B4600F0B0F803B000BD000033040000BA
:104670000EB505490291002100910A460B460191B1
:1046800000F0A1F803B000BD3304000070B5CD0FF9
:104690004A0009030123090B1B0519430B4BED07C6
:1046A0000024520D9A4201DA002070BD074B3433CA
:1046B0009A4203DC9A1A00F04FF802E004495118BC
:1046C00088402C43F1D0404270BD0000FF03000041
:1046D000CDFBFFFF4A0009030123090B1B0519430A
:1046E000094B10B5520D9A4201DA002010BD064B5D
:1046F00034339A4203DC9A1A00F02EF810BD0349B5
:104700005118884010BD0000FF030000CDFBFFFFE3
:1047100010B5002904DB0124E40740428C41214606
:10472000002B04DB1C460123DB075242A3419942C4
:1047300000D1904210BD000010B5202A04DB0146D4
:10474000203A9140002010BD914020239C1A03463E
:10475000E3401943904010BD10B5202A04DB084601
:10476000203AD040002110BD0B46D340D040202439
:10477000A21A91400843194610BD10B5202A06DB45
:10478000CB170846203A1041C1170B4306E00B46F1
:104790001341D0402024A21A91400843194610BD6D
:1047A00001464139192900D82030704710B5002B37
:1047B00008DA0024401C614192185B411A4301D180
:1047C0004008400010BDF0B51FB482B005460C0093
:1047D00003D008460CF0D0F902E00CF0CDF92030FF
:1047E0000246009021462846FFF7A6FF049B059A43
:1047F00004460F4618431143084314D0184610438B
:104800001BD0009840210A1A18460599FFF7A4FF0B
:1048100005460E46009A05990498FFF78DFF084358
:1048200005D0012004E02046394607B0F0BD002045
:10483000C11705430E432C43374300990E98630577
:10484000401A7905E40A00220C43FD0A0A3002D519
:1048500000200146E9E70105101969410C9C0D9DF6
:1048600000196941FFF7A2FFDFE70000F8B5054630
:10487000480040080C46284304D06000184A400D08
:10488000904201DD2846F8BD15493539884210DCD3
:1048900088420BDB290D200308432903014305D07F
:1048A000E00F1049C00741180020F8BD0020014664
:1048B000F8BD161A4020821B28462146FFF73CFF10
:1048C00007460091284621463246FFF745FF3A4603
:1048D000009BFFF76BFF3246FFF72EFFF8BD00008D
:1048E000330400000000F03F4A0009030123090BD4
:1048F0001B0519430A4B10B5520D9A4202DA0020EB
:10490000014610BD064B34339A4203DC9A1AFFF776
:1049100023FF10BD034BD218FFF70EFF10BD0000A0
:10492000FF030000CDFBFFFF10B5002904DB0124CD
:10493000E40740428C412146002B04DB1C46012346
:10494000DB075242A3418B4200D1824210BD0000DE
:10495000064C0125064E05E0E36807CC2B430C3CD2
:1049600098471034B442F7D3FFF7AEFB786A0108DA
:10497000986A010870B58C180578401C6B075B0FAE
:1049800001D10378401C2A1106D10278401C03E0B3
:1049900006780E70401C491C5B1EF9D12B0705D40C
:1049A0000023521E0DD40B70491CFAE70378401CFB
:1049B000CB1A921C03E01D780D70491C5B1C521E23
:1049C000F9D5A142D8D3002070BD000038B5044607
:1049D000064805490068FFF78BFB604300E0401E76
:1049E00000900028FBD138BD40420F001C00002081
:1049F000F8B50446006881688907890F012902D14A
:104A00000168C90722D18168114A10261140012589
:104A100000290ED18168294381600120FFF7D6FF6C
:104A200001F03AFC07460CE001F036FCC01B0A28F6
:104A300007D9A06D3043A065E06D2843E0650120F3
:104A4000F8BD20680068C043C007EDD10020F8BD64
:104A500017000080F0B589B00C46074610220021EF
:104A600068460FF002FD2246243269460846049249
:104A70000CF01BFD68460078872500066946002873
:104A80000FDA00228E18885C76784300F6093343EB
:104A90008B54521C0F2AF5DBC87B0A464000684045
:104AA0000DE000228E18885C76784300F6093343C7
:104AB0008B54521C0F2AF5DBC87B0A464000D0738A
:104AC0002068102812D00878000619D500228E1808
:104AD000885C76784300F60933438B54521C0F2AC6
:104AE000F5DBC87B0A464000684017E0002022182A
:104AF000137D0D5C401C6B4013751028F7DB24E020
:104B000000200B180A5C5B785200DB091A430A5438
:104B1000401C0F28F5DBC87B0A464000D0732246B4
:104B2000256880231432AB54002300E083542068AE
:104B3000401C20601028F9D300202218137D0D5C42
:104B4000401C6B4013751028F7DB002021180A79F0
:104B50000B7D401C5A400A711028F7DB1022211DE2
:104B600005A80FF06AFC394605A8049A0CF09DFCD4
:104B70001022002168460FF078FC09B0F0BD10B596
:104B8000044610220021001D0FF06FFC002001469A
:104B900020602046F02224300FF067FC10BD0B4649
:104BA000024610B52432102118460CF0A9FC10BDA5
:104BB000F0B504460F46214689B0006814310091D3
:104BC00010311546079100283CD010210E1AAE4234
:104BD00000D316460099B2B2401839460FF02DFCAA
:104BE000206880192060102834D3B54232D00020CC
:104BF00021180A790B7D401C5A400A711028F7DBF6
:104C0000211D201D079A0CF050FCBF19AD1B19E0A7
:104C1000002021180A793B5C401C5A400A71102878
:104C2000F7DB1022211D02A80FF007FC02A908469D
:104C3000079A0CF03AFC102202A9201D0FF0FDFB90
:104C4000103D1037102DE3D8AAB2394600980FF066
:104C5000F4FB256009B0F0BDF7B523498022497AFD
:104C6000214B511ACDB2197A5B7A8026F31A0A4683
:104C7000DEB2871E491C0124C9B2761E3B000BF030
:104C8000AAFF09060C060C120C06062B3000164B68
:104C9000AA4224D2154CA05403E0134BB24215DBB8
:104CA0001DE019720DE0104EAD1EAA4217DA0F4B2F
:104CB000985401985854491CC8B202991954401C80
:104CC0003072002408480121C17108E0074CA0544B
:104CD00001986054491CE4E7034BAA42F6D32046EE
:104CE000FEBD0220FEBD0000780900201640002015
:104CF000F7B582B0002000902D48012400272D4AEE
:104D00000457C757956B2030007BEE78012800D1FF
:104D10002E7A1079002843D0B44202D100201063CB
:104D20003EE0AB7C106B834203D801210D2700913C
:104D3000EF57E97C5B18834232D8FFF7D9F9002995
:104D40002ED1697BB94215D028E0641E64B2601987
:104D50004030C07A00280DD015490398491C88427C
:104D60000AD1481E44701348491EC06D4268032092
:104D7000904701E0B442E8DCB44211D10298002827
:104D80000ED00C4DE86B016AA86B8847A86BEA6DE2
:104D90006421095CD268806E904701E00D27EF57CF
:104DA0000398047004980770009805B0F0BD0000E7
:104DB000184100207809002010B50024012800D1F6
:104DC0000224084880560B1AA34201DA204600E06C
:104DD0001846052801DD052402E0A34200DB1C463D
:104DE000E0B210BD4C63010806225043034A80180C
:104DF0004056002800DA0020C0B270477C630108EA
:104E0000401A40B2002800DA0020C0B27047401AB1
:104E100040B2002800DA0020C0B27047401A40B209
:104E2000002800DA0020C0B27047401A40B20028C3
:104E300000DA0020C0B27047054A5156401A03D428
:104E4000052802DD052000E00020C0B27047000008
:104E500056640108881A40B2002800DA0020C0B267
:104E600070470000044A800080184056002800DA8D
:104E70000020C0B270470000AE640108044A800000
:104E800080184056002800DA0020C0B270470000A9
:104E9000F2640108401A40B2002800DA0020C0B2D3
:104EA00070477047F8B505460BF010FA8446334852
:104EB0000C22846B5543206E0935405D1822236F08
:104EC00050431A5A0026103037461818C0C02B48D5
:104ED000C078002804D0A17D2848012924D038E0DA
:104EE000237D012B35D12548C07C002831D0244BAF
:104EF000674608460026FB1AB04101D2642008E04C
:104F0000204B0026F81AB14102D27D20C00000E0FB
:104F10001D48637D1949012B03D1824200D91046F7
:104F200002464F6F0E6F04E0C17C002911D0476F1D
:104F3000066F002330463946FFF734F9821B206E96
:104F4000B941405D18235843236F10301818026090
:104F500041600A480023046F456F828B2046294632
:104F6000FFF720F9041B0548A94180308268C36817
:104F7000A21859418260C160F8BD00007809002084
:104F800080EE3600803F5C0210270000F1B5A6B02D
:104F9000002560210DA80B95FFF75AF9681E0290B5
:104FA00003908F4808A940788E4E0874F06B0CA9C6
:104FB000426AB06B90473446803403CC083C0BF017
:104FC00091F9A268E368801A99417DD30020A0601E
:104FD000E060044655E0F17C002945D018212746C1
:104FE000006F4F4306970837C119019703C90BF0AB
:104FF00079F9B36B069F1A6F10379446D21904974C
:1050000084CA801AB94104D3049A0020014662443C
:1050100003C2186F0499421806CA11432FD0019990
:10502000411803C90BF05EF9B26B136F049A9A181A
:10503000176852683F1A8A4102980399381A8A41C0
:105040000ED20198191803C90BF04CF9B26B136F0B
:10505000049A9A1813685268181A8A41114600E097
:105060000298039102900AE0002102910391036FDC
:1050700020461826704310300A46181806C0641CD3
:10508000E4B2584E6C21B06B095CA142A3D8002752
:105090004DE0002438190590C0B2694607900876A3
:1050A000F06B06A90268B06B9047002839D0B16B4D
:1050B00005980C230A6E584305901058002830D0EC
:1050C00040318888002800E03FE006D0F1780029D0
:1050D00003D10121A140084223D00598404B08305C
:1050E00010560211000701170120185609F02CFA7A
:1050F000002816D0B16B05980A6E0930105C182292
:105100005043096F1030091803C9084304D00B98A5
:10511000401CC0B20B9004E00DA9079848556D1CC7
:10512000EDB2641CE4B2102CB4D31037FFB2B06BF4
:105130004030007FB842ACD8002D3BD00027691E1C
:1051400038460FF079FD04462FE003CC083C0BF005
:10515000C9F8A368E268181A8A41039202902CE009
:105160000DA8015D684601721D48416B0391018ED7
:1051700068460182F06B02A94268B06B9047002834
:105180000DD00DA8005D307569460870F06BC268DF
:10519000B06B904700202699024605C111E02946D0
:1051A000601C7F1CFEF7BAFF0C46AF42D8DB002024
:1051B00027B0F0BD0B98002805D0269A02980399D5
:1051C00003C20120F4E7B06B5B21095C002902D126
:1051D000F16B096A88470020269A014603C2E6E778
:1051E000184100207809002030B50346002002460F
:1051F000012507E02C4694409C4301D1401CC0B2DD
:10520000521CD2B28A42F5D330BD000030B587B00F
:1052100014216846FFF71CF803200190002002903B
:1052200003204003104C0090E06A01210843E06233
:10523000E06A0840059005206946000700F05EFF1F
:10524000E06A40084000E062606B0125AD0528433C
:10525000606300F04BFB00F059FB00F04FFB606B0C
:10526000A843606307B030BD0010024010B502488B
:10527000406E00F089FC10BD9037002010B5046826
:1052800063608368102B036803D099600068C26074
:1052900010BD9A600068C16010BD10B5002103F018
:1052A0001BF810BD10B5012000F01CFF022000F01B
:1052B00019FF10BD10B5042000F014FF082000F005
:1052C00011FF10BD10B50CF0F1FA102000F00AFF2C
:1052D000202000F007FF402000F004FF802000F0B5
:1052E00001FFFF20013000F0FDFE0120400200F030
:1052F000F9FE0120800200F0F5FE0120C00200F05E
:10530000F1FE0120000300F0EDFE0120400300F05B
:10531000E9FE0120800300F0E5FE0120C00300F05B
:10532000E1FE10BDFEE7000010B5214A00219069A2
:10533000C305204804D541690223194341619115F1
:1053400093699B0505D543690124234343616302A7
:10535000194393695B0505D54369082423434361D9
:10536000E301194393691B0505D5436904242343CD
:1053700043616302194393699B0405D54369102473
:10538000234343616302194393699B0304D5446932
:1053900020231C43446119439369DB0305D543690A
:1053A000402423434361A0020143916110BD0000EA
:1053B00000200240F021002070B5054600F06CFF8F
:1053C0000646184C0AE0681C08D0002D04D000F0F6
:1053D00063FF801BA84201D9032070BDA069C007EC
:1053E000F1D1A069800701D50220A061A069C005A4
:1053F00011D4A06980050ED4A06940050BD4A06922
:10540000000508D4A069800405D4A069800302D4F3
:10541000A069C00303D5FFF787FF012070BD0020FE
:1054200070BD00000020024001460020062900D186
:105430000120704701460020062900DB022070474A
:1054400001460020062900D10120704701460020B6
:10545000062900D10120704701460020062900D10D
:105460000120704701460020042900DB022070471C
:1054700001460020042900DB02207047014600207D
:10548000062900D10120704710B5094A0021CB0040
:10549000D458844207D89B189B68834203D9C8001C
:1054A0008018007910BD491CC9B21529EFD3FEE759
:1054B0008C5701080248806D002800D0802070477A
:1054C00010320020F8B5054604464035287D0026F8
:1054D000012808D001202875206881688907890F74
:1054E00001290ED101E00220F8BD0168C90708D0EA
:1054F000A06D20210843A0650126002028753046B4
:10550000F8BDA16DFF220132914302221143A16532
:10551000C1688907890F0091C16889088900C16045
:105520002068816892071143816000F0B5FE07464C
:105530000EE000F0B1FEC01B0A2809D9A06D0221BF
:10554000884310210843A065002028750120F8BD7C
:10555000206880680028ECDB2068C168009A11434D
:10556000C160A06D80088000401CA065C5E70000F8
:10557000F8B506460D464036317D01290DD0012192
:10558000317501688A68520709D5816D202211435F
:105590008165002030750120F8BD0220F8BD174B51
:1055A0006A68D80547109A42154C8A6A2B6812D04F
:1055B0005B035B0B1A438A622968490305D5A1681E
:1055C0000143A1600A20FFF701FA2868800312D581
:1055D000A06838430EE05B035B0B9A438A6229683C
:1055E000490302D5A1688143A1602868800302D5E0
:1055F000A068B843A06000203075F8BD011000001D
:10560000002701400068006C7047000070B504007E
:1056100006D0A06D264600254036002802D006E0C0
:10562000012070BDE5653575204600F0D1F8A06D0C
:10563000C00603D421688868400705D5A06D1021F5
:105640000843A0653575EBE7A06DFF22013290435A
:1056500002221043A06588688207920F5A48012AE7
:1056600002D10A68D2072BD1032362689B079A42B2
:1056700005D05B429A4202D05B009A4209D10A6986
:10568000920092080A6121680A6963681A430A61F4
:105690000CE00A69920092080A6181680F22920464
:1056A0009143816081686268114381602168CA68A2
:1056B00018239A43CA602168CA68A3681A43CA605B
:1056C000816801225206914381608168228F5206CF
:1056D0001143816020688168C90004D48168012277
:1056E0001207114381602068C168384A1140C160C7
:1056F0002169E068022923D000210843216A226B36
:105700004903520011430843616B0843A1698903AF
:105710000843E169C90308432168CA681043C860A7
:10572000A06A0146FF39C23905D0E16A0843216801
:10573000CA681043C860606A0121012802D00BE0EA
:105740000421DAE7206A002823D0A06D202210432C
:10575000A065E06D0843E065206C012820681FD03B
:105760000169C90703D0016949084900016120683E
:105770004169C908C900416120684169E26B114370
:105780004161E565A06D80088000401CA065002097
:1057900070BD2068C26801231B041A43C260DBE7A6
:1057A0000269FF239B009A43026120680269636CCF
:1057B000E66C1A43A36C33431A4302612068026902
:1057C0000A430261D3E70000002701401902FEFFEF
:1057D0007047F8B504464069254640350E4608280E
:1057E0000BD02068C068C00709D0A06D20210843F5
:1057F000A065002028750120F8BD082700E00C27CF
:1058000000F04AFD009011E0701C0FD0002E05D072
:1058100000F042FD0099401AB04207D9A06D042162
:105820000843A065002028750320F8BD20680068A3
:105830003842E9D0A06D012149020843A0652068E3
:10584000C16809058A0F0C21002A1AD1226A002A90
:1058500017D10268120714D5826853070122002B62
:1058600008DB43688B434360A06D130298431043E9
:10587000A06506E0A06D20231843A065E06D1043ED
:10588000E065A069002801D1206801600020F8BD12
:1058900070B50446216800208968490721D425464F
:1058A0004035297D01291CD001212975E169012993
:1058B00004D02046FFF79CF8002811D1A16D0A4AB8
:1058C0001140FF2201321143A1650021E1652975D4
:1058D00022681C21116021688A6804231A438A60A7
:1058E00070BD022070BD0000FEF1FFFF024841685C
:1058F000490849004160704700580140024841682A
:1059000004229143416070470058014002484168B9
:1059100002229143416070470058014070B5002455
:10592000024620325179022903D00421C1630124A7
:105930003CE001680B680E25AB430B6001680B6807
:105940005B085B000B601A4B0168994201D1012191
:1059500021E0174B1433994201D110211BE0144B65
:105960002833994201D1891515E0114B3C339942F6
:1059700001D189140FE00E4B5033994202D101211D
:10598000090408E00A4B6433994202D10121090558
:1059900001E001210906064B083B596001215171C4
:1059A00000211171816B002900D08847204670BD0D
:1059B00008000240F0B5002821D0014620318C4675
:1059C000497902291BD001680A68520852000A600E
:1059D00002680021116002685160026891600268EB
:1059E000D160684C674D674E664F664A0168143453
:1059F00028353C365037914203D101231DE0012068
:105A0000F0BDA14201D1102317E0A94202D1FF232A
:105A1000013312E0B14202D101231B030DE0B94270
:105A200002D101231B0408E0564B6433994202D192
:105A300001231B0501E001231B06524908394B6075
:105A40000168914201D102231BE0A14201D1202330
:105A500017E0A94202D101235B0212E0B14202D158
:105A600001235B030DE0B94202D101235B0408E08E
:105A7000444B6433994202D101235B0501E00123C9
:105A80005B06404908394B600168914201D1082307
:105A90001BE0A14201D1802317E0A94202D10123DA
:105AA000DB0212E0B14202D10123DB030DE0B94277
:105AB00002D10123DB0408E0324B6433994202D166
:105AC0000123DB0501E00123DB062E4908394B6089
:105AD0000168914201D104231BE0A14201D140237E
:105AE00017E0A94202D101239B0212E0B14202D188
:105AF00001239B030DE0B94202D101239B0408E07E
:105B0000204B6433994202D101239B0501E001231C
:105B10009B061C4908394B601A4903687831934247
:105B200003D18A6A1209120124E0A34202D18A6ACF
:105B3000F0231EE0AB4203D18A6A0F231B0218E058
:105B4000B34203D18A6A0F231B0312E0BB4203D185
:105B50008A6A0F231B040CE00A4A6432934203D181
:105B60008A6A0F231B0504E08B4204D18A6A0F2343
:105B70001B069A438A620021C1636046417101712C
:105B80000846F0BD08000240F8B504469D4801688B
:105B90009C4A9C4E9B4F0832206813041C363037B9
:105BA000904201D108221EE0B04201D180221AE0C9
:105BB000B84202D10122D20215E0924A4432904208
:105BC00002D10122D2030EE08E4A5832904201D116
:105BD0001A4608E08B4A6C32904202D10122D2056B
:105BE00001E00122D20625461140203500293BD094
:105BF0000168090738D5016808229143016081498D
:105C000020680831884201D108201EE0B04201D14D
:105C100080201AE0B84202D10120C00215E0794983
:105C20004431884202D10120C0030EE07549583149
:105C3000884201D1184608E072496C31884202D18D
:105C40000120C00501E00120C0066E494860E06BFC
:105C500001210843E0630420687100202871616B12
